:0400000031EF00F0EC
:100008000182FACFC5F0FBCFC6F0D9CFC7F0DACF5F
:10001800C8F0F2BAF2A403D0EBEC09F014D0F2BCA9
:10002800A3A80BD0A4A809D00001920503E1D6EC3F
:1000380009F009D0AFEC0AF006D0F2BCA3AA03D0AD
:10004800A4BA50EC08F0C8C0DAFFC7C0D9FFC6C0D0
:0E005800FBFFC5C0FAFF0192110099EF08F0FE
:10060000002C310D000006FF0D002B2B2B000000ED
:100610000000000041542453463D000000004154B6
:100620002453463D0000000041542453423D310014
:1006300000004154580000000000000041545332B3
:1006400030323D370000067F1618207F0B0007412F
:070650004243004F4B000084
:100658000001E06FE66B600EE56F09D0460EE86FAB
:10066800060E03D04E0EE86F060EE96F0FD0E0516C
:10067800010AF4E0030AF6E0010AD8B4000C070AFC
:10068800D8B4000C010AD8A4030A000CE051A7D87A
:10069800030ECD6F92EC04F0FD0EE527FF0EE62366
:1006A80091D89DD8050ECD6F92EC04F0FB0EE5278E
:1006B800FF0EE623E84BE92B49D0E829DE6F000E50
:1006C800E921DF6FDEC0F6FFDFC0F7FFF86A080038
:1006D800F550C0EC09F07ED8020E11D0F3517AD84B
:1006E800060E0DD0935176D8010E09D070C0E1F0F6
:1006F80071C0E2F072C0E3F073C0E4F00AD0E76FB3
:1007080036D06CC0E1F06DC0E2F06EC0E3F06FC0AF
:10071800E4F01C0EF4D77CC0E1F07DC0E2F0E36B9E
:10072800E46B080EECD77AC0E1F07BC0E2F0000E73
:10073800E2BFFF0EE36FE46F090EE1D778C0E1F086
:1007480079C0E2F0E36BE46B100ED9D73BD80B0A03
:10075800C5E01D0ACBE00E0AD4E0020ADCE0010A7B
:10076800E2E03B0AEBE05E0ABDE0010AA6E0E1C078
:10077800C9F0E2C0CAF0E3C0CBF0E4C0CCF0E7C0F7
:10078800CDF092EC04F0E751E55F000EE65BE6BFC2
:10079800000CE84BE92B16D8D9E1E6BF0CD0E6519E
:1007A80002E1E50508E3C96BCA6BCB6BCC6BE5C00E
:1007B800CDF092EC04F0B80EC96F000ECA6F9BEC36
:1007C80006F0010CE8C0F6FFE9C0F7FFF86A080078
:1007D800F5501200E16FE26BE36BE46B1200C96F36
:1007E800CA6BCB6BCC6B1200050EF66E060EF76E5D
:1007F800000EF86E0900F5CFDBF00900F5CFDCF04C
:100808000A00F5CFDDF076D08C51D8B4000C83D037
:1008180010EC0AF0020EF26FDB0EDE6F000EDF6FD7
:10082800010C74D8DF5004EC08F0F16F020EF119D6
:100838000DE122EC0AF0000905E0DE4BDF2B030E88
:100848008A6F0AD08A5108E08A0706D0F15102E17E
:100858004BEC0AF0F151120059D8DE28E2E1020E01
:10086800F16F030EF26F8C6B8F51D8A4010C8E516F
:10087800D8A4010C8B51D8A4010C020C8F5104E1AF
:100888008E5102E18B5106E0030E8A6F040EF26F5F
:10089800916B010C8D51D8B4020C4BEC0AF0000C92
:1008A8008E5104E0020E04EC08F009D08B5104E0EC
:1008B800030E04EC08F003D0010E04EC08F0F16F0D
:1008C800020EF1190DE122EC0AF0000906E08F6B27
:1008D8008E6B8B6B030EF26F010C8A5101E08A0755
:1008E800F151D8A4010C8B6B8F6B8E6B030EF26FDA
:1008F800040C11D00001F25187E0010A89E0030AD3
:10090800ABE0010ABBE0070ACBE005D0DEC0D9FFA7
:10091800DFC0DAFF1200010EF26F010C0001CD39C1
:10092800E8461F0BD76FDC6B13D0DD6B0A0EDD6555
:1009380001D00BD081D8B80EDD25E16EE26A000E39
:10094800E222DFCFE7FFDD2BF1D76FD8DF6ADC2BA0
:10095800D751DC5DEAE3CD51070BD76FDC6B1BD0B9
:10096800DD6B0B0EDD6501D012D05FD8DF50020DB4
:100978005CD8F3CFDFFF60D8DFAE04D056D8000EC6
:10098800DB8003D052D8FE0EDF16DD2BEAD74DD818
:10099800FE0EDF16DC2BD751DC5DE2E3010ED86FCB
:1009A800D96BDA6BDB6BCDC0CEF0D8C0CFF0D9C035
:1009B800D0F0DAC0D1F0DBC0D2F0CE2B05D0D89081
:1009C800CF37D037D137D237CE2FF9D7FF0ECF2533
:1009D800D36FFF0ED021D46FFF0ED121D56FFF0E3C
:1009E800D221D66FC951D315D86FCA51D415D96F32
:1009F800CB51D515DA6FCC51D615DB6F0B0EDC6FEA
:100A0800080EDC6101D0080CB80EDC25D96EDA6A54
:100A1800000EDA22D851DF12D951D86FDA51D96FC6
:100A2800DB51DA6FDB6BDC07EBD7B80EDD25D96E4F
:100A3800DA6A000EDA221200B90EDD25D96EDA6AFA
:100A4800000EDA2212000001D76F080EF66E060EAD
:100A5800F76E000EF86E0900F5CFD3F00A00F5CF57
:100A6800D4F0010EF66E060EF76E000EF86E090051
:100A7800F5CFCFF00900F5CFD0F00900F5CFD1F0D0
:100A88000A00F5CFD2F0050E876FD7510A0D0A0E6E
:100A9800F324D56F060EF420D66F19D038D8F7ECAA
:100AA80008F0120034D8F7EC08F01DD01E0E876F3E
:100AB8002ED8F7EC08F0950E0001C96F000ECA6F2A
:100AC800000ECB6F010ECC6F2BEC08F00CD0D75179
:100AD800E5E0010AEBE0030AE9E0010AE3E0070ABE
:100AE800E1E0020ADFE0020E0001D71908E118D898
:100AF800CF0ECB6F000ECC6F2BEC08F0120010D885
:100B0800D30ECB6F000ECC6F2BEC08F01200950EB5
:100B1800C96F000ECA6FD5C0CBF0D6C0CCF012009A
:100B2800950EC96F000ECA6F120050D0E4EC06F0A3
:100B3800000905E0646B656B666B676B5AD014EC53
:100B480009F00009D8B4000C606B616B626B636BD1
:100B580050D0E4EC06F000090CE0000EBAEC08F006
:100B6800010EBAEC08F03DD831EC09F0020E826FA4
:100B7800010C14EC09F0000910E0000EBAEC08F0C2
:100B8800010EBAEC08F02DD831EC09F0010E2CEC6E
:100B980003F0030E0001826F010C90EC0AF0000CC8
:100BA800000E75EC08F0010E75EC08F0050E75ECFA
:100BB80008F0F00EE06F070EE16FE36B3C0EE26F9A
:100BC80031EC09F016D090EC0AF0000C00018251CB
:100BD800ADE0010ABEE0030A0CE0010AE1E0F3D748
:100BE80008D09C0EE06F0C0EE16FE36B320EE26FE3
:100BF800320C010E826F010C0001D26BCCAF03D016
:100C080040D8010ED26FD0AF08D0D01FCF1FCE1F53
:100C1800CD6D000ECE23CF23D023CD51CE11CF11D1
:100C2800D01123E0010ED16F06D0D890CD37CE3742
:100C3800CF37D037D12BD0AFF8D7CD51C95DCE51F2
:100C4800CA59CF51CB59D051CC5908E3CD51C95FBE
:100C5800CE51CA5BCF51CB5BD051CC5BD890D0334F
:100C6800CF33CE33CD33D12FE8D7D25101E009D8D5
:100C7800C9C0C9F0CAC0CAF0CBC0CBF0CCC0CCF058
:100C88001200CC1FCB1FCA1FC96D000ECA23CB236D
:100C9800CC23000C40D08051D8B4000C010EEF6F6B
:100CA800010C9BEC0AF0898E0001756B040E746FC1
:100CB800020EEF6F010C7451751101E0010C806B8D
:100CC800030EEF6F7F51D8A4010C7E51D8A4010CFC
:100CD800020C7F5101E0898C7E5101E08B807F51AD
:100CE80003E17E51D8B4020C040EEF6F756B020E4F
:100CF800746F010C74517511D8A4010C030EEF6FB9
:100D08007F5102E07F6B010C7E51D8A47E6B010CF1
:100D180040EC0AF0010C0001EF51BDE0010AC1E00E
:100D2800030AC9E0010AD5E0070AE4E0F1D70001A7
:100D3800D16B0B0ED16501D038D03AD8CB6FCB39F7
:100D48000F0BD26F090ED26502D0370E01D0300ECC
:100D5800D225CD6FCE6B000ECE23D151CB6FCC6B8D
:100D6800D890CB37CC37000ECB25D96E010ECC21CD
:100D7800DA6ECDC0DFFF1CD80F0BD26F090ED2651B
:100D880002D0370E01D0300ED225CF6FD06B000EB7
:100D9800D023D151020D010EF324D96E010EF42097
:100DA800DA6ECFC0DFFFD12BC4D70101186B120058
:100DB800D151C925D96E000ECA21DA6EDF50120052
:100DC800000183510EE194510CE0010E836F1BD892
:100DD80000EC06F028D817D800EC06F024EC09F04F
:100DE800000C9AEC07F00EE1835107E12C0E646FBA
:100DF800010E656F666B676B010C05D800EC06F099
:100E080012D8010C000C68C0C9F069C0CAF06AC0E9
:100E1800CBF06BC0CCF0580ECD6F020ECE6F000E2B
:100E2800CF6FD06F000CC9515808646F020ECA55B5
:100E3800656F000ECB55666F000ECC55676F1200BC
:100E480030D0D4C0CDF0D5C0CEF0D6C0CFF0D7C00A
:100E5800D0F0D6C0C9F0D7C0CAF065EC09F0C9C057
:100E6800D1F0CAC0D2F0D4EC07F0CD51CE1105E1D3
:100E7800D4C0D4F0D5C0D5F01200D429C96F000E63
:100E8800D521CA6FD6C0F6FFD7C0F7FFF86A0800A9
:100E9800F550CB6FCC6B7DEC09F0C9C0D4F0CAC05B
:100EA800D5F00001D451D51106E0D4C0D9FFD5C082
:100EB800DAFFDF50C6E1D46BD56B12000001815117
:100EC800010ED8A4000E816F8151D8B41200682B8E
:100ED800000E69236A236B236BBF11D06B5107E1A6
:100EE800800E685D510E6959010E6A5908E3800E3B
:100EF8006827AE0E6923FE0E6A23FF0E6B2316D8F1
:100F080005E06407000E655B665B675B0AD805E071
:100F18006007000E615B625B635B6AEC0AF073EF6B
:100F28000AF0605161116211631112006451651178
:100F380066116711120056EC0AF0960E0001C96F8F
:100F4800120ECA6F96EC0AF0F28EF28C938290EC35
:100F58000AF0010EDAEC08F0010E776FD60E766F04
:100F680099EC05F0EA6F7651771102E0EA51F8E161
:100F7800945109E0020EDAEC08F0776B0F0E766FE9
:100F880076517711FDE1776B3C0E766F000EDAEC47
:100F980008F001D00400000176517711DAE0FAD7A1
:100FA80018D0CDC0D9FFCEC0DAFFDF5005E0CDC0E4
:100FB800D9FF1AD8D31909E0CDC0D9FF15D8D35D08
:100FC800CD6FCE6BD8A0CE071200CD4BCE2BCF4B1A
:100FD800D02B0001D107D8A0D207D129E2E1D2292C
:100FE800E0E1CD6BCE6B1200CEC0DAFFDF50D36FDD
:100FF800CFC0F6FFD0C0F7FFF86A0800F55012001E
:101008000001D86F010EF16F1CD082EC0AF00009C4
:101018001DE0D85127EC05F0010E0001916F9FECFF
:101028000AF0010C875104E1A398A39AAAEF09F0EA
:1010380090510CE0876BAAEF09F0916B020E866F56
:10104800010C9151E2E0010AEDE0F7D7010CC9C0AB
:10105800CDF0CAC0CEF003D00001CD4BCE2BCDC011
:10106800D9FFCEC0DAFFDF5006E0F6D70001CD4B3E
:10107800CE2BCB4BCC2BCBC0D9FFCCC0DAFFCDC00D
:10108800E1FFCEC0E2FFDFCFE7FFE750EFE1C9C0E5
:10109800C9F0CAC0CAF0120074CFC4F0A49A71A2F1
:1010A80005D0719871880001886BC46B140E00011B
:1010B800886501D0886B0D0EC41905E1885103E0DD
:1010C800010E906FA39A06D8C4C0DFFF882B02D800
:1010D800DF6A000C190E8825D96EDA6A010EDA2249
:1010E80012000001C96F15D0010E8C6F010C8E6BB8
:1010F800010E8F6F8B6B12008F6B010E8E6F8B6BD7
:1011080012008F6B8E6B010E8B6F010C010E8D6FB1
:10111800010C0001C951E8E0010AE9E0030AECE02A
:10112800010AEFE0060AF2E01200520EF66E150E02
:10113800F76E000EF86E00EEF0F010EE04F0090005
:10114800F5CFEEFFE550E150FAE101EE00F02F0E89
:10115800EE6AE806FDE100EE60F0640EEE6AE8066D
:10116800FDE10190019200019FEF07F00001C96FB6
:1011780007D0010E806F010C16D012D014D010D0F9
:101188000001C951F6E0010A0EE0030A09E0010A6C
:101198000AE0070A05E0010A02E140EF0AF012003E
:1011A8007F6B899C1200010E7F6F010C0001C96FD3
:1011B800F0190AE115D0010E05D0020E03D0040E75
:1011C80001D00F0E856F09D0C951FBE0010AF3E089
:1011D800030AF3E0060AF3E0F4D7898485C084F0B3
:1011E800C9C0F0F01200C9C0CDF0CAC0CEF005D019
:1011F8000001CD4BCE2BCB4BCC2BCBC0F6FFCCC0BC
:10120800F7FFF86ACDC0D9FFCEC0DAFF0800F5CFE6
:10121800DFFFDF50EDE1C9C0C9F0CAC0CAF0120053
:10122800010E0001836F835101E1000C95EC07F07A
:1012380006E107EC07F000EC06F002D8010C000C00
:10124800C9515808606F020ECA55616F000ECB5520
:10125800626F000ECC55636F1200E2C0E4F0E3C089
:10126800E5F010D001D809D00500FA6EE051FD6E06
:10127800E151FE6EFF6AFA501200E66FE60502E0E1
:10128800E65112000001E451E511ECE1030C62ECB7
:1012980007F0C45106E07651771103E07607D8A02D
:1012A8007707C451010ED8A4000EC46F80B404D0CF
:1012B800898485C084F0120084078451D8B4899445
:1012C8001200C9C0CBF0CAC0CCF003D00001CB4B90
:1012D800CC2BCBC0F6FFCCC0F7FFF86A0800F5505E
:1012E800F5E10001C951CB5DC96FCA51CC59CA6F2C
:1012F800120011D80001CB51DE1805E1C9C0C9F0B0
:10130800CAC0CAF0120007D8C94BCA2BDF50F1E196
:10131800C96BCA6B1200C9C0D9FFCAC0DAFF120074
:10132800130ED56E850ED76EED0ED66ED650D7CF6E
:10133800C9F00001CA6BC9C0CAF0C96BC911EB6F0B
:10134800CA51EC6FF294F28AABEF0AF0020E000178
:10135800866F916B905104E0020EF16F906B020C56
:101368008A5101E08A078A5104E1010EF26FF16B9C
:10137800000C010EF16F010C0001CA6FCA51A6ECF6
:101388000AF00001CB6F040ECB1902E0CB5112001A
:10139800CA5189EC0AF0CB6F040ECB1902E0CB518D
:1013A8001200040C950E00010BD804E1A39860EC20
:1013B8000AF004D0950E04D8736E892BA4981200F5
:1013C8008925D96EDA6A000EDA22DF501200F2940B
:1013D800ECC0D7FFEBC0D6FF0001ED51EE11D8B439
:1013E80012000500FA6EED51FD6EEE51FE6EFF6AB9
:1013F800FA501200896A650E8A6E400E8B6E230EB3
:10140800926E980E936E946E0F013A6B396B230EA1
:10141800386F616AF19E120032EC0AF0010E000189
:10142800F26F020E866F916B010EF16F030E8A6FD9
:10143800876B906B8A8A8A908A941200190E000131
:10144800D46F010ED56F530ED66F060ED76F24ECEE
:1014580007F0D4C0D8F0D5C0D9F0010C0F013F9FD8
:10146800A39AA398080E706E900E716E240E726E79
:10147800330E756E766A12000F013D810001806B94
:101488007F6B7E6B899C8B90899EEF6B12000001AD
:101498008C6B8D6B0F013F8F8A848A9A8A8000013A
:1014A800F26B1200ADEC0AF0FEEC09F07BEC0AF0EE
:1014B800A3EC0AF094EF09F071980001886B010120
:1014C800196B0001906B7188A38A12000001745196
:1014D8007511D8B412007407D8A07507120000015E
:1014E800875101E087078651D8A486071200500E5D
:1014F800D36E040ED26E800E9B6E800C0001865156
:1015080003E1A3A8010C000C000C0001C96F0B0E2D
:10151800C91901E1000C040C0001826B4BEC0AF0C4
:1015280040EF0AF0C9C0EDF0CAC0EEF01200899C85
:101538008B90899E12000001896BA38812000F010D
:101548003D8112000001C96F040C04010164D58EAD
:081558001200D09E12001200E7
:020000040020DA
:08000000FFFFFFFFFFFFFFFF00
:020000040030CA
:0E000000FF281E34FFBF81FF0FC00FE00F402E
:00000001FF
